{
  "contractName": "Voting",
  "abi": [
    {
      "inputs": [],
      "stateMutability": "nonpayable",
      "type": "constructor"
    },
    {
      "inputs": [
        {
          "internalType": "uint256",
          "name": "",
          "type": "uint256"
        }
      ],
      "name": "candidates",
      "outputs": [
        {
          "internalType": "uint256",
          "name": "id",
          "type": "uint256"
        },
        {
          "internalType": "string",
          "name": "name",
          "type": "string"
        },
        {
          "internalType": "uint256",
          "name": "voteCount",
          "type": "uint256"
        }
      ],
      "stateMutability": "view",
      "type": "function",
      "constant": true
    },
    {
      "inputs": [],
      "name": "candidatesCount",
      "outputs": [
        {
          "internalType": "uint256",
          "name": "",
          "type": "uint256"
        }
      ],
      "stateMutability": "view",
      "type": "function",
      "constant": true
    },
    {
      "inputs": [],
      "name": "owner",
      "outputs": [
        {
          "internalType": "address",
          "name": "",
          "type": "address"
        }
      ],
      "stateMutability": "view",
      "type": "function",
      "constant": true
    },
    {
      "inputs": [
        {
          "internalType": "address",
          "name": "",
          "type": "address"
        }
      ],
      "name": "voters",
      "outputs": [
        {
          "internalType": "bool",
          "name": "",
          "type": "bool"
        }
      ],
      "stateMutability": "view",
      "type": "function",
      "constant": true
    },
    {
      "inputs": [
        {
          "internalType": "string",
          "name": "_name",
          "type": "string"
        }
      ],
      "name": "addCandidate",
      "outputs": [],
      "stateMutability": "nonpayable",
      "type": "function"
    },
    {
      "inputs": [
        {
          "internalType": "uint256",
          "name": "_candidateId",
          "type": "uint256"
        }
      ],
      "name": "vote",
      "outputs": [],
      "stateMutability": "nonpayable",
      "type": "function"
    },
    {
      "inputs": [
        {
          "internalType": "uint256",
          "name": "_candidateId",
          "type": "uint256"
        }
      ],
      "name": "getCandidate",
      "outputs": [
        {
          "internalType": "uint256",
          "name": "",
          "type": "uint256"
        },
        {
          "internalType": "string",
          "name": "",
          "type": "string"
        },
        {
          "internalType": "uint256",
          "name": "",
          "type": "uint256"
        }
      ],
      "stateMutability": "view",
      "type": "function",
      "constant": true
    },
    {
      "inputs": [],
      "name": "getAllCandidates",
      "outputs": [
        {
          "components": [
            {
              "internalType": "uint256",
              "name": "id",
              "type": "uint256"
            },
            {
              "internalType": "string",
              "name": "name",
              "type": "string"
            },
            {
              "internalType": "uint256",
              "name": "voteCount",
              "type": "uint256"
            }
          ],
          "internalType": "struct Voting.Candidate[]",
          "name": "",
          "type": "tuple[]"
        }
      ],
      "stateMutability": "view",
      "type": "function",
      "constant": true
    },
    {
      "inputs": [],
      "name": "getWinner",
      "outputs": [
        {
          "internalType": "string",
          "name": "winnerName",
          "type": "string"
        }
      ],
      "stateMutability": "view",
      "type": "function",
      "constant": true
    }
  ],
  "bytecode": "0x608060405234801561001057600080fd5b50336000806101000a81548173ffffffffffffffffffffffffffffffffffffffff021916908373ffffffffffffffffffffffffffffffffffffffff1602179055506113d2806100606000396000f3fe608060405234801561001057600080fd5b50600436106100b0576000357c01000000000000000000000000000000000000000000000000000000009004806335b8e8201161008357806335b8e8201461013f578063462e91ec146101715780638da5cb5b1461018d5780638e7ea5b2146101ab578063a3ec138d146101c9576100b0565b80630121b93f146100b55780632d35a8a2146100d15780632e6997fe146100ef5780633477ee2e1461010d575b600080fd5b6100cf60048036038101906100ca9190610937565b6101f9565b005b6100d961035e565b6040516100e69190610973565b60405180910390f35b6100f7610364565b6040516101049190610b3f565b60405180910390f35b61012760048036038101906101229190610937565b6104d9565b60405161013693929190610bab565b60405180910390f35b61015960048036038101906101549190610937565b61058b565b60405161016893929190610bab565b60405180910390f35b61018b60048036038101906101869190610d1e565b610675565b005b61019561077e565b6040516101a29190610da8565b60405180910390f35b6101b36107a2565b6040516101c09190610dc3565b60405180910390f35b6101e360048036038101906101de9190610e11565b6108ac565b6040516101f09190610e59565b60405180910390f35b600360003373ffffffffffffffffffffffffffffffffffffffff1673ffffffffffffffffffffffffffffffffffffffff16815260200190815260200160002060009054906101000a900460ff1615610286576040517f08c379a000000000000000000000000000000000000000000000000000000000815260040161027d90610ec0565b60405180910390fd5b60008111801561029857506002548111155b6102d7576040517f08c379a00000000000000000000000000000000000000000000000000000000081526004016102ce90610f2c565b60405180910390fd5b6001600360003373ffffffffffffffffffffffffffffffffffffffff1673ffffffffffffffffffffffffffffffffffffffff16815260200190815260200160002060006101000a81548160ff02191690831515021790555060016000828152602001908152602001600020600201600081548092919061035690610f7b565b919050555050565b60025481565b6060600060025467ffffffffffffffff81111561038457610383610bf3565b5b6040519080825280602002602001820160405280156103bd57816020015b6103aa6108cc565b8152602001906001900390816103a25790505b5090506000600190505b60025481116104d157600160008281526020019081526020016000206040518060600160405290816000820154815260200160018201805461040890610ff2565b80601f016020809104026020016040519081016040528092919081815260200182805461043490610ff2565b80156104815780601f1061045657610100808354040283529160200191610481565b820191906000526020600020905b81548152906001019060200180831161046457829003601f168201915b50505050508152602001600282015481525050826001836104a29190611023565b815181106104b3576104b2611057565b5b602002602001018190525080806104c990610f7b565b9150506103c7565b508091505090565b600160205280600052604060002060009150905080600001549080600101805461050290610ff2565b80601f016020809104026020016040519081016040528092919081815260200182805461052e90610ff2565b801561057b5780601f106105505761010080835404028352916020019161057b565b820191906000526020600020905b81548152906001019060200180831161055e57829003601f168201915b5050505050908060020154905083565b6000606060008060016000868152602001908152602001600020604051806060016040529081600082015481526020016001820180546105ca90610ff2565b80601f01602080910402602001604051908101604052809291908181526020018280546105f690610ff2565b80156106435780601f1061061857610100808354040283529160200191610643565b820191906000526020600020905b81548152906001019060200180831161062657829003601f168201915b505050505081526020016002820154815250509050806000015181602001518260400151935093509350509193909250565b60008054906101000a900473ffffffffffffffffffffffffffffffffffffffff1673ffffffffffffffffffffffffffffffffffffffff163373ffffffffffffffffffffffffffffffffffffffff1614610703576040517f08c379a00000000000000000000000000000000000000000000000000000000081526004016106fa906110f8565b60405180910390fd5b6002600081548092919061071690610f7b565b919050555060405180606001604052806002548152602001828152602001600081525060016000600254815260200190815260200160002060008201518160000155602082015181600101908161076d91906112ca565b506040820151816002015590505050565b60008054906101000a900473ffffffffffffffffffffffffffffffffffffffff1681565b60606000806000600190505b60025481116108055782600160008381526020019081526020016000206002015411156107f257600160008281526020019081526020016000206002015492508091505b80806107fd90610f7b565b9150506107ae565b5060016000828152602001908152602001600020600101805461082790610ff2565b80601f016020809104026020016040519081016040528092919081815260200182805461085390610ff2565b80156108a05780601f10610875576101008083540402835291602001916108a0565b820191906000526020600020905b81548152906001019060200180831161088357829003601f168201915b50505050509250505090565b60036020528060005260406000206000915054906101000a900460ff1681565b60405180606001604052806000815260200160608152602001600081525090565b6000604051905090565b600080fd5b600080fd5b6000819050919050565b61091481610901565b811461091f57600080fd5b50565b6000813590506109318161090b565b92915050565b60006020828403121561094d5761094c6108f7565b5b600061095b84828501610922565b91505092915050565b61096d81610901565b82525050565b60006020820190506109886000830184610964565b92915050565b600081519050919050565b600082825260208201905092915050565b6000819050602082019050919050565b6109c381610901565b82525050565b600081519050919050565b600082825260208201905092915050565b60005b83811015610a035780820151818401526020810190506109e8565b60008484015250505050565b6000601f19601f8301169050919050565b6000610a2b826109c9565b610a3581856109d4565b9350610a458185602086016109e5565b610a4e81610a0f565b840191505092915050565b6000606083016000830151610a7160008601826109ba565b5060208301518482036020860152610a898282610a20565b9150506040830151610a9e60408601826109ba565b508091505092915050565b6000610ab58383610a59565b905092915050565b6000602082019050919050565b6000610ad58261098e565b610adf8185610999565b935083602082028501610af1856109aa565b8060005b85811015610b2d5784840389528151610b0e8582610aa9565b9450610b1983610abd565b925060208a01995050600181019050610af5565b50829750879550505050505092915050565b60006020820190508181036000830152610b598184610aca565b905092915050565b600082825260208201905092915050565b6000610b7d826109c9565b610b878185610b61565b9350610b978185602086016109e5565b610ba081610a0f565b840191505092915050565b6000606082019050610bc06000830186610964565b8181036020830152610bd28185610b72565b9050610be16040830184610964565b949350505050565b600080fd5b600080fd5b7f4e487b7100000000000000000000000000000000000000000000000000000000600052604160045260246000fd5b610c2b82610a0f565b810181811067ffffffffffffffff82111715610c4a57610c49610bf3565b5b80604052505050565b6000610c5d6108ed565b9050610c698282610c22565b919050565b600067ffffffffffffffff821115610c8957610c88610bf3565b5b610c9282610a0f565b9050602081019050919050565b82818337600083830152505050565b6000610cc1610cbc84610c6e565b610c53565b905082815260208101848484011115610cdd57610cdc610bee565b5b610ce8848285610c9f565b509392505050565b600082601f830112610d0557610d04610be9565b5b8135610d15848260208601610cae565b91505092915050565b600060208284031215610d3457610d336108f7565b5b600082013567ffffffffffffffff811115610d5257610d516108fc565b5b610d5e84828501610cf0565b91505092915050565b600073ffffffffffffffffffffffffffffffffffffffff82169050919050565b6000610d9282610d67565b9050919050565b610da281610d87565b82525050565b6000602082019050610dbd6000830184610d99565b92915050565b60006020820190508181036000830152610ddd8184610b72565b905092915050565b610dee81610d87565b8114610df957600080fd5b50565b600081359050610e0b81610de5565b92915050565b600060208284031215610e2757610e266108f7565b5b6000610e3584828501610dfc565b91505092915050565b60008115159050919050565b610e5381610e3e565b82525050565b6000602082019050610e6e6000830184610e4a565b92915050565b7f596f75206861766520616c726561647920766f74656400000000000000000000600082015250565b6000610eaa601683610b61565b9150610eb582610e74565b602082019050919050565b60006020820190508181036000830152610ed981610e9d565b9050919050565b7f496e76616c69642063616e646964617465000000000000000000000000000000600082015250565b6000610f16601183610b61565b9150610f2182610ee0565b602082019050919050565b60006020820190508181036000830152610f4581610f09565b9050919050565b7f4e487b7100000000000000000000000000000000000000000000000000000000600052601160045260246000fd5b6000610f8682610901565b91507fffffffffffffffffffffffffffffffffffffffffffffffffffffffffffffffff8203610fb857610fb7610f4c565b5b600182019050919050565b7f4e487b7100000000000000000000000000000000000000000000000000000000600052602260045260246000fd5b6000600282049050600182168061100a57607f821691505b60208210810361101d5761101c610fc3565b5b50919050565b600061102e82610901565b915061103983610901565b925082820390508181111561105157611050610f4c565b5b92915050565b7f4e487b7100000000000000000000000000000000000000000000000000000000600052603260045260246000fd5b7f4f6e6c79206f776e65722063616e2063616c6c20746869732066756e6374696f60008201527f6e00000000000000000000000000000000000000000000000000000000000000602082015250565b60006110e2602183610b61565b91506110ed82611086565b604082019050919050565b60006020820190508181036000830152611111816110d5565b9050919050565b60008190508160005260206000209050919050565b60006020601f8301049050919050565b60008160020a8302905092915050565b60006008830261117d7fffffffffffffffffffffffffffffffffffffffffffffffffffffffffffffffff8261113d565b611187868361113d565b95508019841693508086168417925050509392505050565b6000819050919050565b60006111c46111bf6111ba84610901565b61119f565b610901565b9050919050565b6000819050919050565b6111de836111a9565b6111f26111ea826111cb565b84845461114d565b825550505050565b600090565b6112076111fa565b6112128184846111d5565b505050565b5b818110156112365761122b6000826111ff565b600181019050611218565b5050565b601f82111561127b5761124c81611118565b6112558461112d565b81016020851015611264578190505b6112786112708561112d565b830182611217565b50505b505050565b60008160020a8304905092915050565b60006112a160001984600802611280565b1980831691505092915050565b60006112ba8383611290565b9150826002028217905092915050565b6112d3826109c9565b67ffffffffffffffff8111156112ec576112eb610bf3565b5b6112f68254610ff2565b61130182828561123a565b600060209050601f8311600181146113345760008415611322578287015190505b61132c85826112ae565b865550611394565b601f19841661134286611118565b60005b8281101561136a57848901518255600182019150602085019450602081019050611345565b868310156113875784890151611383601f891682611290565b8355505b6001600288020188555050505b50505050505056fea2646970667358221220694ac897748318b917bf9c23b83f4d3e1d7a91c916bf4f92712419ad4ad2db3d64736f6c63430008150033",
  "immutableReferences": {},
  "source": "// SPDX-License-Identifier: MIT\r\npragma solidity ^0.8.0;\r\n\r\n// Contract to conduct a decentralized voting process\r\ncontract Voting {\r\n    // State variable to store the address of the contract owner\r\n    address public owner;\r\n\r\n    // Struct to represent a candidate\r\n    struct Candidate {\r\n        uint id; // Candidate ID\r\n        string name; // Candidate name\r\n        uint voteCount; // Number of votes the candidate has received\r\n    }\r\n\r\n    // Mapping to store candidates with their ID as the key\r\n    mapping(uint => Candidate) public candidates;\r\n    // Variable to keep track of the number of candidates\r\n    uint public candidatesCount;\r\n\r\n    // Mapping to track whether an address has voted or not\r\n    mapping(address => bool) public voters;\r\n\r\n    // Modifier to restrict function access to the contract owner\r\n    modifier onlyOwner() {\r\n        require(msg.sender == owner, \"Only owner can call this function\");\r\n        _;\r\n    }\r\n\r\n    // Constructor to set the owner of the contract to the address that deploys it\r\n    constructor() {\r\n        owner = msg.sender;\r\n    }\r\n\r\n    // Function to add a new candidate (only callable by the owner)\r\n    function addCandidate(string memory _name) public onlyOwner {\r\n        candidatesCount++; // Increment the candidate count\r\n        candidates[candidatesCount] = Candidate(candidatesCount, _name, 0); // Add a new candidate\r\n    }\r\n\r\n    // Function to vote for a candidate\r\n    function vote(uint _candidateId) public {\r\n        require(!voters[msg.sender], \"You have already voted\"); // Ensure the voter hasn't voted before\r\n        require(_candidateId > 0 && _candidateId <= candidatesCount, \"Invalid candidate\"); // Ensure the candidate ID is valid\r\n\r\n        voters[msg.sender] = true; // Mark the voter as having voted\r\n        candidates[_candidateId].voteCount++; // Increment the vote count for the chosen candidate\r\n    }\r\n\r\n    // Function to get the details of a candidate by their ID\r\n    function getCandidate(uint _candidateId) public view returns (uint, string memory, uint) {\r\n        Candidate memory candidate = candidates[_candidateId]; // Fetch the candidate from the mapping\r\n        return (candidate.id, candidate.name, candidate.voteCount); // Return the candidate's details\r\n    }\r\n\r\n    // Function to get details of all candidates\r\n    function getAllCandidates() public view returns (Candidate[] memory) {\r\n        Candidate[] memory allCandidates = new Candidate[](candidatesCount); // Initialize an array to hold all candidates\r\n        // Loop through all candidates and add them to the array\r\n        for (uint i = 1; i <= candidatesCount; i++) {\r\n            allCandidates[i - 1] = candidates[i];\r\n        }\r\n        return allCandidates; // Return the array of all candidates\r\n    }\r\n\r\n    // Function to determine the winner of the election\r\n    function getWinner() public view returns (string memory winnerName) {\r\n        uint maxVotes = 0; // Variable to track the highest number of votes\r\n        uint winnerId = 0; // Variable to track the ID of the winning candidate\r\n\r\n        // Loop through all candidates to find the one with the most votes\r\n        for (uint i = 1; i <= candidatesCount; i++) {\r\n            if (candidates[i].voteCount > maxVotes) {\r\n                maxVotes = candidates[i].voteCount; // Update the highest vote count\r\n                winnerId = i; // Update the winner ID\r\n            }\r\n        }\r\n\r\n        // Return the name of the candidate with the most votes\r\n        winnerName = candidates[winnerId].name;\r\n    }\r\n}\r\n",
  "sourcePath": "C:\\Users\\danya\\Downloads\\Aqib- Voting Contract\\VotingApp2\\contracts\\Voting.sol",
  "compiler": {
    "name": "solc",
    "version": "0.8.21+commit.d9974bed.Emscripten.clang"
  },
  "schemaVersion": "3.4.16",
  "updatedAt": "2024-06-08T18:12:04.686Z",
  "networkType": "ethereum",
  "devdoc": {
    "kind": "dev",
    "methods": {},
    "version": 1
  },
  "userdoc": {
    "kind": "user",
    "methods": {},
    "version": 1
  }
}